{
  "_format": "hh-sol-artifact-1",
  "contractName": "Y0",
  "sourceName": "contracts/Y0.sol",
  "abi": [
    {
      "inputs": [],
      "stateMutability": "nonpayable",
      "type": "constructor"
    },
    {
      "inputs": [],
      "name": "ApprovalCallerNotOwnerNorApproved",
      "type": "error"
    },
    {
      "inputs": [],
      "name": "ApprovalQueryForNonexistentToken",
      "type": "error"
    },
    {
      "inputs": [],
      "name": "ApprovalToCurrentOwner",
      "type": "error"
    },
    {
      "inputs": [],
      "name": "ApproveToCaller",
      "type": "error"
    },
    {
      "inputs": [],
      "name": "BalanceQueryForZeroAddress",
      "type": "error"
    },
    {
      "inputs": [],
      "name": "MintToZeroAddress",
      "type": "error"
    },
    {
      "inputs": [],
      "name": "MintZeroQuantity",
      "type": "error"
    },
    {
      "inputs": [],
      "name": "OwnerQueryForNonexistentToken",
      "type": "error"
    },
    {
      "inputs": [],
      "name": "TransferCallerNotOwnerNorApproved",
      "type": "error"
    },
    {
      "inputs": [],
      "name": "TransferFromIncorrectOwner",
      "type": "error"
    },
    {
      "inputs": [],
      "name": "TransferToNonERC721ReceiverImplementer",
      "type": "error"
    },
    {
      "inputs": [],
      "name": "TransferToZeroAddress",
      "type": "error"
    },
    {
      "inputs": [],
      "name": "URIQueryForNonexistentToken",
      "type": "error"
    },
    {
      "anonymous": false,
      "inputs": [
        {
          "indexed": true,
          "internalType": "address",
          "name": "owner",
          "type": "address"
        },
        {
          "indexed": true,
          "internalType": "address",
          "name": "approved",
          "type": "address"
        },
        {
          "indexed": true,
          "internalType": "uint256",
          "name": "tokenId",
          "type": "uint256"
        }
      ],
      "name": "Approval",
      "type": "event"
    },
    {
      "anonymous": false,
      "inputs": [
        {
          "indexed": true,
          "internalType": "address",
          "name": "owner",
          "type": "address"
        },
        {
          "indexed": true,
          "internalType": "address",
          "name": "operator",
          "type": "address"
        },
        {
          "indexed": false,
          "internalType": "bool",
          "name": "approved",
          "type": "bool"
        }
      ],
      "name": "ApprovalForAll",
      "type": "event"
    },
    {
      "anonymous": false,
      "inputs": [
        {
          "indexed": true,
          "internalType": "address",
          "name": "previousOwner",
          "type": "address"
        },
        {
          "indexed": true,
          "internalType": "address",
          "name": "newOwner",
          "type": "address"
        }
      ],
      "name": "OwnershipTransferred",
      "type": "event"
    },
    {
      "anonymous": false,
      "inputs": [
        {
          "indexed": true,
          "internalType": "address",
          "name": "from",
          "type": "address"
        },
        {
          "indexed": true,
          "internalType": "address",
          "name": "to",
          "type": "address"
        },
        {
          "indexed": true,
          "internalType": "uint256",
          "name": "tokenId",
          "type": "uint256"
        }
      ],
      "name": "Transfer",
      "type": "event"
    },
    {
      "inputs": [],
      "name": "MAX_SUPPLY1",
      "outputs": [
        {
          "internalType": "uint256",
          "name": "",
          "type": "uint256"
        }
      ],
      "stateMutability": "view",
      "type": "function"
    },
    {
      "inputs": [],
      "name": "MAX_SUPPLY2",
      "outputs": [
        {
          "internalType": "uint256",
          "name": "",
          "type": "uint256"
        }
      ],
      "stateMutability": "view",
      "type": "function"
    },
    {
      "inputs": [],
      "name": "MAX_SUPPLY3",
      "outputs": [
        {
          "internalType": "uint256",
          "name": "",
          "type": "uint256"
        }
      ],
      "stateMutability": "view",
      "type": "function"
    },
    {
      "inputs": [],
      "name": "MAX_SUPPLY4",
      "outputs": [
        {
          "internalType": "uint256",
          "name": "",
          "type": "uint256"
        }
      ],
      "stateMutability": "view",
      "type": "function"
    },
    {
      "inputs": [],
      "name": "MINT_CAP_EXTRA",
      "outputs": [
        {
          "internalType": "uint256",
          "name": "",
          "type": "uint256"
        }
      ],
      "stateMutability": "view",
      "type": "function"
    },
    {
      "inputs": [],
      "name": "MINT_CAP_NORMAL",
      "outputs": [
        {
          "internalType": "uint256",
          "name": "",
          "type": "uint256"
        }
      ],
      "stateMutability": "view",
      "type": "function"
    },
    {
      "inputs": [],
      "name": "MINT_CAP_RARE",
      "outputs": [
        {
          "internalType": "uint256",
          "name": "",
          "type": "uint256"
        }
      ],
      "stateMutability": "view",
      "type": "function"
    },
    {
      "inputs": [],
      "name": "MINT_CAP_SUPER",
      "outputs": [
        {
          "internalType": "uint256",
          "name": "",
          "type": "uint256"
        }
      ],
      "stateMutability": "view",
      "type": "function"
    },
    {
      "inputs": [
        {
          "internalType": "address",
          "name": "to",
          "type": "address"
        },
        {
          "internalType": "uint256",
          "name": "tokenId",
          "type": "uint256"
        }
      ],
      "name": "approve",
      "outputs": [],
      "stateMutability": "nonpayable",
      "type": "function"
    },
    {
      "inputs": [
        {
          "internalType": "address",
          "name": "owner",
          "type": "address"
        }
      ],
      "name": "balanceOf",
      "outputs": [
        {
          "internalType": "uint256",
          "name": "",
          "type": "uint256"
        }
      ],
      "stateMutability": "view",
      "type": "function"
    },
    {
      "inputs": [],
      "name": "baseExtension",
      "outputs": [
        {
          "internalType": "string",
          "name": "",
          "type": "string"
        }
      ],
      "stateMutability": "view",
      "type": "function"
    },
    {
      "inputs": [],
      "name": "baseURI",
      "outputs": [
        {
          "internalType": "string",
          "name": "",
          "type": "string"
        }
      ],
      "stateMutability": "view",
      "type": "function"
    },
    {
      "inputs": [],
      "name": "extra_car_count",
      "outputs": [
        {
          "internalType": "uint256",
          "name": "",
          "type": "uint256"
        }
      ],
      "stateMutability": "view",
      "type": "function"
    },
    {
      "inputs": [],
      "name": "extra_car_price",
      "outputs": [
        {
          "internalType": "uint256",
          "name": "",
          "type": "uint256"
        }
      ],
      "stateMutability": "view",
      "type": "function"
    },
    {
      "inputs": [
        {
          "internalType": "uint256",
          "name": "tokenId",
          "type": "uint256"
        }
      ],
      "name": "getApproved",
      "outputs": [
        {
          "internalType": "address",
          "name": "",
          "type": "address"
        }
      ],
      "stateMutability": "view",
      "type": "function"
    },
    {
      "inputs": [],
      "name": "hiddenURI",
      "outputs": [
        {
          "internalType": "string",
          "name": "",
          "type": "string"
        }
      ],
      "stateMutability": "view",
      "type": "function"
    },
    {
      "inputs": [],
      "name": "isActive",
      "outputs": [
        {
          "internalType": "bool",
          "name": "",
          "type": "bool"
        }
      ],
      "stateMutability": "view",
      "type": "function"
    },
    {
      "inputs": [
        {
          "internalType": "address",
          "name": "owner",
          "type": "address"
        },
        {
          "internalType": "address",
          "name": "operator",
          "type": "address"
        }
      ],
      "name": "isApprovedForAll",
      "outputs": [
        {
          "internalType": "bool",
          "name": "",
          "type": "bool"
        }
      ],
      "stateMutability": "view",
      "type": "function"
    },
    {
      "inputs": [],
      "name": "maxMintPerTransaction",
      "outputs": [
        {
          "internalType": "uint256",
          "name": "",
          "type": "uint256"
        }
      ],
      "stateMutability": "view",
      "type": "function"
    },
    {
      "inputs": [],
      "name": "maxMintPerWallet",
      "outputs": [
        {
          "internalType": "uint256",
          "name": "",
          "type": "uint256"
        }
      ],
      "stateMutability": "view",
      "type": "function"
    },
    {
      "inputs": [],
      "name": "maxSupply",
      "outputs": [
        {
          "internalType": "uint256",
          "name": "",
          "type": "uint256"
        }
      ],
      "stateMutability": "view",
      "type": "function"
    },
    {
      "inputs": [
        {
          "internalType": "address",
          "name": "_to",
          "type": "address"
        },
        {
          "internalType": "uint256",
          "name": "_num",
          "type": "uint256"
        },
        {
          "internalType": "uint256",
          "name": "_mintType",
          "type": "uint256"
        }
      ],
      "name": "mintByOwner",
      "outputs": [],
      "stateMutability": "nonpayable",
      "type": "function"
    },
    {
      "inputs": [],
      "name": "name",
      "outputs": [
        {
          "internalType": "string",
          "name": "",
          "type": "string"
        }
      ],
      "stateMutability": "view",
      "type": "function"
    },
    {
      "inputs": [],
      "name": "normal_car_count",
      "outputs": [
        {
          "internalType": "uint256",
          "name": "",
          "type": "uint256"
        }
      ],
      "stateMutability": "view",
      "type": "function"
    },
    {
      "inputs": [],
      "name": "normal_car_price",
      "outputs": [
        {
          "internalType": "uint256",
          "name": "",
          "type": "uint256"
        }
      ],
      "stateMutability": "view",
      "type": "function"
    },
    {
      "inputs": [],
      "name": "owner",
      "outputs": [
        {
          "internalType": "address",
          "name": "",
          "type": "address"
        }
      ],
      "stateMutability": "view",
      "type": "function"
    },
    {
      "inputs": [
        {
          "internalType": "uint256",
          "name": "tokenId",
          "type": "uint256"
        }
      ],
      "name": "ownerOf",
      "outputs": [
        {
          "internalType": "address",
          "name": "",
          "type": "address"
        }
      ],
      "stateMutability": "view",
      "type": "function"
    },
    {
      "inputs": [
        {
          "internalType": "address",
          "name": "_to",
          "type": "address"
        },
        {
          "internalType": "uint256",
          "name": "_num",
          "type": "uint256"
        },
        {
          "internalType": "uint256",
          "name": "_mintType",
          "type": "uint256"
        }
      ],
      "name": "publicMint",
      "outputs": [],
      "stateMutability": "payable",
      "type": "function"
    },
    {
      "inputs": [],
      "name": "rare_car_count",
      "outputs": [
        {
          "internalType": "uint256",
          "name": "",
          "type": "uint256"
        }
      ],
      "stateMutability": "view",
      "type": "function"
    },
    {
      "inputs": [],
      "name": "rare_car_price",
      "outputs": [
        {
          "internalType": "uint256",
          "name": "",
          "type": "uint256"
        }
      ],
      "stateMutability": "view",
      "type": "function"
    },
    {
      "inputs": [],
      "name": "renounceOwnership",
      "outputs": [],
      "stateMutability": "nonpayable",
      "type": "function"
    },
    {
      "inputs": [],
      "name": "revealNFT",
      "outputs": [
        {
          "internalType": "bool",
          "name": "",
          "type": "bool"
        }
      ],
      "stateMutability": "view",
      "type": "function"
    },
    {
      "inputs": [
        {
          "internalType": "address",
          "name": "from",
          "type": "address"
        },
        {
          "internalType": "address",
          "name": "to",
          "type": "address"
        },
        {
          "internalType": "uint256",
          "name": "tokenId",
          "type": "uint256"
        }
      ],
      "name": "safeTransferFrom",
      "outputs": [],
      "stateMutability": "nonpayable",
      "type": "function"
    },
    {
      "inputs": [
        {
          "internalType": "address",
          "name": "from",
          "type": "address"
        },
        {
          "internalType": "address",
          "name": "to",
          "type": "address"
        },
        {
          "internalType": "uint256",
          "name": "tokenId",
          "type": "uint256"
        },
        {
          "internalType": "bytes",
          "name": "_data",
          "type": "bytes"
        }
      ],
      "name": "safeTransferFrom",
      "outputs": [],
      "stateMutability": "nonpayable",
      "type": "function"
    },
    {
      "inputs": [
        {
          "internalType": "address",
          "name": "operator",
          "type": "address"
        },
        {
          "internalType": "bool",
          "name": "approved",
          "type": "bool"
        }
      ],
      "name": "setApprovalForAll",
      "outputs": [],
      "stateMutability": "nonpayable",
      "type": "function"
    },
    {
      "inputs": [
        {
          "internalType": "string",
          "name": "_baseURI",
          "type": "string"
        }
      ],
      "name": "setBaseURI",
      "outputs": [],
      "stateMutability": "nonpayable",
      "type": "function"
    },
    {
      "inputs": [
        {
          "internalType": "uint256",
          "name": "_newPrice",
          "type": "uint256"
        }
      ],
      "name": "setExtraRarePrice",
      "outputs": [],
      "stateMutability": "nonpayable",
      "type": "function"
    },
    {
      "inputs": [
        {
          "internalType": "string",
          "name": "_hiddenURI",
          "type": "string"
        }
      ],
      "name": "setHiddenURI",
      "outputs": [],
      "stateMutability": "nonpayable",
      "type": "function"
    },
    {
      "inputs": [
        {
          "internalType": "bool",
          "name": "_isActive",
          "type": "bool"
        }
      ],
      "name": "setIsActive",
      "outputs": [],
      "stateMutability": "nonpayable",
      "type": "function"
    },
    {
      "inputs": [
        {
          "internalType": "uint256",
          "name": "_maxMintPerTransaction",
          "type": "uint256"
        }
      ],
      "name": "setMaxMintPerTransaction",
      "outputs": [],
      "stateMutability": "nonpayable",
      "type": "function"
    },
    {
      "inputs": [
        {
          "internalType": "uint256",
          "name": "_maxMintPerWallet",
          "type": "uint256"
        }
      ],
      "name": "setMaxMintPerWallet",
      "outputs": [],
      "stateMutability": "nonpayable",
      "type": "function"
    },
    {
      "inputs": [
        {
          "internalType": "uint256",
          "name": "_newPrice",
          "type": "uint256"
        }
      ],
      "name": "setNormalPrice",
      "outputs": [],
      "stateMutability": "nonpayable",
      "type": "function"
    },
    {
      "inputs": [
        {
          "internalType": "uint256",
          "name": "_newPrice",
          "type": "uint256"
        }
      ],
      "name": "setRarePrice",
      "outputs": [],
      "stateMutability": "nonpayable",
      "type": "function"
    },
    {
      "inputs": [
        {
          "internalType": "bool",
          "name": "_revealNFT",
          "type": "bool"
        }
      ],
      "name": "setRevealNFT",
      "outputs": [],
      "stateMutability": "nonpayable",
      "type": "function"
    },
    {
      "inputs": [
        {
          "internalType": "uint256",
          "name": "_newPrice",
          "type": "uint256"
        }
      ],
      "name": "setSuperRarePrice",
      "outputs": [],
      "stateMutability": "nonpayable",
      "type": "function"
    },
    {
      "inputs": [],
      "name": "super_car_count",
      "outputs": [
        {
          "internalType": "uint256",
          "name": "",
          "type": "uint256"
        }
      ],
      "stateMutability": "view",
      "type": "function"
    },
    {
      "inputs": [],
      "name": "super_car_price",
      "outputs": [
        {
          "internalType": "uint256",
          "name": "",
          "type": "uint256"
        }
      ],
      "stateMutability": "view",
      "type": "function"
    },
    {
      "inputs": [
        {
          "internalType": "bytes4",
          "name": "interfaceId",
          "type": "bytes4"
        }
      ],
      "name": "supportsInterface",
      "outputs": [
        {
          "internalType": "bool",
          "name": "",
          "type": "bool"
        }
      ],
      "stateMutability": "view",
      "type": "function"
    },
    {
      "inputs": [],
      "name": "symbol",
      "outputs": [
        {
          "internalType": "string",
          "name": "",
          "type": "string"
        }
      ],
      "stateMutability": "view",
      "type": "function"
    },
    {
      "inputs": [
        {
          "internalType": "uint256",
          "name": "tokenId",
          "type": "uint256"
        }
      ],
      "name": "tokenURI",
      "outputs": [
        {
          "internalType": "string",
          "name": "",
          "type": "string"
        }
      ],
      "stateMutability": "view",
      "type": "function"
    },
    {
      "inputs": [],
      "name": "totalSupply",
      "outputs": [
        {
          "internalType": "uint256",
          "name": "",
          "type": "uint256"
        }
      ],
      "stateMutability": "view",
      "type": "function"
    },
    {
      "inputs": [
        {
          "internalType": "address",
          "name": "from",
          "type": "address"
        },
        {
          "internalType": "address",
          "name": "to",
          "type": "address"
        },
        {
          "internalType": "uint256",
          "name": "tokenId",
          "type": "uint256"
        }
      ],
      "name": "transferFrom",
      "outputs": [],
      "stateMutability": "nonpayable",
      "type": "function"
    },
    {
      "inputs": [
        {
          "internalType": "address",
          "name": "newOwner",
          "type": "address"
        }
      ],
      "name": "transferOwnership",
      "outputs": [],
      "stateMutability": "nonpayable",
      "type": "function"
    },
    {
      "inputs": [
        {
          "internalType": "address",
          "name": "_wallet",
          "type": "address"
        }
      ],
      "name": "withdraw",
      "outputs": [],
      "stateMutability": "nonpayable",
      "type": "function"
    }
  ],
  "bytecode": "0x6080604052610640600955610190600a5560c8600b556016600c556000600d556000600e556000600f5560006010556798a7d9b8314c00006011556801314fb370629800006012556801c9f78d2893e400006013556802629f66e0c530000060145561064060155561019060165560c860175560166018556000601960006101000a81548160ff0219169083151502179055506003601b556001601c556000601d60006101000a81548160ff0219169083151502179055506040518060400160405280600581526020017f2e6a736f6e000000000000000000000000000000000000000000000000000000815250601f908051906020019062000104929190620002f8565b503480156200011257600080fd5b506040518060400160405280600681526020017f5930204e465400000000000000000000000000000000000000000000000000008152506040518060400160405280600681526020017f5930204e46540000000000000000000000000000000000000000000000000000815250816002908051906020019062000197929190620002f8565b508060039080519060200190620001b0929190620002f8565b50620001c16200022560201b60201c565b6000819055505050620001e9620001dd6200022a60201b60201c565b6200023260201b60201c565b600c54600b54600a54600954620002019190620003a8565b6200020d9190620003a8565b620002199190620003a8565b601a81905550620004a3565b600090565b600033905090565b6000600860009054906101000a900473ffffffffffffffffffffffffffffffffffffffff16905081600860006101000a81548173ffffffffffffffffffffffffffffffffffffffff021916908373ffffffffffffffffffffffffffffffffffffffff1602179055508173ffffffffffffffffffffffffffffffffffffffff168173ffffffffffffffffffffffffffffffffffffffff167f8be0079c531659141344cd1fd0a4f28419497f9722a3daafe3b4186f6b6457e060405160405180910390a35050565b82805462000306906200040f565b90600052602060002090601f0160209004810192826200032a576000855562000376565b82601f106200034557805160ff191683800117855562000376565b8280016001018555821562000376579182015b828111156200037557825182559160200191906001019062000358565b5b50905062000385919062000389565b5090565b5b80821115620003a45760008160009055506001016200038a565b5090565b6000620003b58262000405565b9150620003c28362000405565b9250827fffffffffffffffffffffffffffffffffffffffffffffffffffffffffffffffff03821115620003fa57620003f962000445565b5b828201905092915050565b6000819050919050565b600060028204905060018216806200042857607f821691505b602082108114156200043f576200043e62000474565b5b50919050565b7f4e487b7100000000000000000000000000000000000000000000000000000000600052601160045260246000fd5b7f4e487b7100000000000000000000000000000000000000000000000000000000600052602260045260246000fd5b61481880620004b36000396000f3fe6080604052600436106103355760003560e01c8063715018a6116101ab578063b88d4fde116100f7578063d0f25e4311610095578063e2dffa4f1161006f578063e2dffa4f14610bb5578063e985e9c514610be0578063f2fde38b14610c1d578063fba412eb14610c4657610335565b8063d0f25e4314610b34578063d5abeb0114610b5f578063df013af714610b8a57610335565b8063c0ed16e1116100d1578063c0ed16e114610a7a578063c668286214610aa3578063c87b56dd14610ace578063c9a83ae214610b0b57610335565b8063b88d4fde146109fd578063bbaac02f14610a26578063bd3cbd1c14610a4f57610335565b806395d89b41116101645780639f02c81e1161013e5780639f02c81e14610964578063a22cb46514610980578063afdf6134146109a9578063b228d925146109d257610335565b806395d89b41146108e3578063997bd4711461090e5780639d6cc2781461093957610335565b8063715018a6146107f55780638cc54e7f1461080c5780638da5cb5b14610837578063908edeb01461086257806394d0645b1461088d5780639565e8ef146108b857610335565b806323b872dd1161028557806351cff8d9116102235780636352211e116101fd5780636352211e14610727578063660e01e8146107645780636c0360eb1461078d57806370a08231146107b857610335565b806351cff8d9146106aa57806355f804b3146106d357806357a4acc1146106fc57610335565b806331b06cb41161025f57806331b06cb414610602578063326c2ca81461062d57806335b3eea61461065857806342842e0e1461068157610335565b806323b872dd146105875780632750fc78146105b05780632e6cebe5146105d957610335565b806310b2d71a116102f257806318160ddd116102cc57806318160ddd146104db5780631a74f8571461050657806321ffc3011461053157806322f3e2d41461055c57610335565b806310b2d71a1461045e57806312eda3dd14610487578063175a6a1b146104b057610335565b806301f569971461033a57806301ffc9a71461036557806304b4bba9146103a257806306fdde03146103cd578063081812fc146103f8578063095ea7b314610435575b600080fd5b34801561034657600080fd5b5061034f610c71565b60405161035c91906140bf565b60405180910390f35b34801561037157600080fd5b5061038c60048036038101906103879190613b2a565b610c77565b6040516103999190613f42565b60405180910390f35b3480156103ae57600080fd5b506103b7610d59565b6040516103c49190613f42565b60405180910390f35b3480156103d957600080fd5b506103e2610d6c565b6040516103ef9190613f5d565b60405180910390f35b34801561040457600080fd5b5061041f600480360381019061041a9190613bbd565b610dfe565b60405161042c9190613edb565b60405180910390f35b34801561044157600080fd5b5061045c60048036038101906104579190613a76565b610e7a565b005b34801561046a57600080fd5b5061048560048036038101906104809190613bbd565b610f7f565b005b34801561049357600080fd5b506104ae60048036038101906104a99190613bbd565b611005565b005b3480156104bc57600080fd5b506104c561108b565b6040516104d291906140bf565b60405180910390f35b3480156104e757600080fd5b506104f0611091565b6040516104fd91906140bf565b60405180910390f35b34801561051257600080fd5b5061051b6110a8565b60405161052891906140bf565b60405180910390f35b34801561053d57600080fd5b506105466110ae565b60405161055391906140bf565b60405180910390f35b34801561056857600080fd5b506105716110b4565b60405161057e9190613f42565b60405180910390f35b34801561059357600080fd5b506105ae60048036038101906105a99190613970565b6110c7565b005b3480156105bc57600080fd5b506105d760048036038101906105d29190613b01565b6110d7565b005b3480156105e557600080fd5b5061060060048036038101906105fb9190613bbd565b611170565b005b34801561060e57600080fd5b506106176111f6565b60405161062491906140bf565b60405180910390f35b34801561063957600080fd5b506106426111fc565b60405161064f91906140bf565b60405180910390f35b34801561066457600080fd5b5061067f600480360381019061067a9190613bbd565b611202565b005b34801561068d57600080fd5b506106a860048036038101906106a39190613970565b611288565b005b3480156106b657600080fd5b506106d160048036038101906106cc919061390b565b6112a8565b005b3480156106df57600080fd5b506106fa60048036038101906106f59190613b7c565b6113b7565b005b34801561070857600080fd5b5061071161144d565b60405161071e91906140bf565b60405180910390f35b34801561073357600080fd5b5061074e60048036038101906107499190613bbd565b611453565b60405161075b9190613edb565b60405180910390f35b34801561077057600080fd5b5061078b60048036038101906107869190613bbd565b611469565b005b34801561079957600080fd5b506107a26114ef565b6040516107af9190613f5d565b60405180910390f35b3480156107c457600080fd5b506107df60048036038101906107da919061390b565b61157d565b6040516107ec91906140bf565b60405180910390f35b34801561080157600080fd5b5061080a61164d565b005b34801561081857600080fd5b506108216116d5565b60405161082e9190613f5d565b60405180910390f35b34801561084357600080fd5b5061084c611763565b6040516108599190613edb565b60405180910390f35b34801561086e57600080fd5b5061087761178d565b60405161088491906140bf565b60405180910390f35b34801561089957600080fd5b506108a2611793565b6040516108af91906140bf565b60405180910390f35b3480156108c457600080fd5b506108cd611799565b6040516108da91906140bf565b60405180910390f35b3480156108ef57600080fd5b506108f861179f565b6040516109059190613f5d565b60405180910390f35b34801561091a57600080fd5b50610923611831565b60405161093091906140bf565b60405180910390f35b34801561094557600080fd5b5061094e611837565b60405161095b91906140bf565b60405180910390f35b61097e60048036038101906109799190613ab2565b61183d565b005b34801561098c57600080fd5b506109a760048036038101906109a29190613a3a565b611ccb565b005b3480156109b557600080fd5b506109d060048036038101906109cb9190613bbd565b611e43565b005b3480156109de57600080fd5b506109e7611ec9565b6040516109f491906140bf565b60405180910390f35b348015610a0957600080fd5b50610a246004803603810190610a1f91906139bf565b611ecf565b005b348015610a3257600080fd5b50610a4d6004803603810190610a489190613b7c565b611f47565b005b348015610a5b57600080fd5b50610a64611fdd565b604051610a7191906140bf565b60405180910390f35b348015610a8657600080fd5b50610aa16004803603810190610a9c9190613b01565b611fe3565b005b348015610aaf57600080fd5b50610ab861207c565b604051610ac59190613f5d565b60405180910390f35b348015610ada57600080fd5b50610af56004803603810190610af09190613bbd565b61210a565b604051610b029190613f5d565b60405180910390f35b348015610b1757600080fd5b50610b326004803603810190610b2d9190613ab2565b6121be565b005b348015610b4057600080fd5b50610b496124a8565b604051610b5691906140bf565b60405180910390f35b348015610b6b57600080fd5b50610b746124ae565b604051610b8191906140bf565b60405180910390f35b348015610b9657600080fd5b50610b9f6124b4565b604051610bac91906140bf565b60405180910390f35b348015610bc157600080fd5b50610bca6124ba565b604051610bd791906140bf565b60405180910390f35b348015610bec57600080fd5b50610c076004803603810190610c029190613934565b6124c0565b604051610c149190613f42565b60405180910390f35b348015610c2957600080fd5b50610c446004803603810190610c3f919061390b565b612554565b005b348015610c5257600080fd5b50610c5b61264c565b604051610c6891906140bf565b60405180910390f35b601c5481565b60007f80ac58cd000000000000000000000000000000000000000000000000000000007bffffffffffffffffffffffffffffffffffffffffffffffffffffffff1916827bffffffffffffffffffffffffffffffffffffffffffffffffffffffff19161480610d4257507f5b5e139f000000000000000000000000000000000000000000000000000000007bffffffffffffffffffffffffffffffffffffffffffffffffffffffff1916827bffffffffffffffffffffffffffffffffffffffffffffffffffffffff1916145b80610d525750610d5182612652565b5b9050919050565b601d60009054906101000a900460ff1681565b606060028054610d7b90614384565b80601f0160208091040260200160405190810160405280929190818152602001828054610da790614384565b8015610df45780601f10610dc957610100808354040283529160200191610df4565b820191906000526020600020905b815481529060010190602001808311610dd757829003601f168201915b5050505050905090565b6000610e09826126bc565b610e3f576040517fcf4700e400000000000000000000000000000000000000000000000000000000815260040160405180910390fd5b6006600083815260200190815260200160002060009054906101000a900473ffffffffffffffffffffffffffffffffffffffff169050919050565b6000610e8582611453565b90508073ffffffffffffffffffffffffffffffffffffffff168373ffffffffffffffffffffffffffffffffffffffff161415610eed576040517f943f7b8c00000000000000000000000000000000000000000000000000000000815260040160405180910390fd5b8073ffffffffffffffffffffffffffffffffffffffff16610f0c61270a565b73ffffffffffffffffffffffffffffffffffffffff1614610f6f57610f3881610f3361270a565b6124c0565b610f6e576040517fcfb3b94200000000000000000000000000000000000000000000000000000000815260040160405180910390fd5b5b610f7a838383612712565b505050565b610f8761270a565b73ffffffffffffffffffffffffffffffffffffffff16610fa5611763565b73ffffffffffffffffffffffffffffffffffffffff1614610ffb576040517f08c379a0000000000000000000000000000000000000000000000000000000008152600401610ff29061405f565b60405180910390fd5b8060118190555050565b61100d61270a565b73ffffffffffffffffffffffffffffffffffffffff1661102b611763565b73ffffffffffffffffffffffffffffffffffffffff1614611081576040517f08c379a00000000000000000000000000000000000000000000000000000000081526004016110789061405f565b60405180910390fd5b8060148190555050565b60105481565b600061109b6127c4565b6001546000540303905090565b60115481565b60125481565b601960009054906101000a900460ff1681565b6110d28383836127c9565b505050565b6110df61270a565b73ffffffffffffffffffffffffffffffffffffffff166110fd611763565b73ffffffffffffffffffffffffffffffffffffffff1614611153576040517f08c379a000000000000000000000000000000000000000000000000000000000815260040161114a9061405f565b60405180910390fd5b80601960006101000a81548160ff02191690831515021790555050565b61117861270a565b73ffffffffffffffffffffffffffffffffffffffff16611196611763565b73ffffffffffffffffffffffffffffffffffffffff16146111ec576040517f08c379a00000000000000000000000000000000000000000000000000000000081526004016111e39061405f565b60405180910390fd5b80601c8190555050565b600b5481565b600a5481565b61120a61270a565b73ffffffffffffffffffffffffffffffffffffffff16611228611763565b73ffffffffffffffffffffffffffffffffffffffff161461127e576040517f08c379a00000000000000000000000000000000000000000000000000000000081526004016112759061405f565b60405180910390fd5b8060138190555050565b6112a383838360405180602001604052806000815250611ecf565b505050565b6112b061270a565b73ffffffffffffffffffffffffffffffffffffffff166112ce611763565b73ffffffffffffffffffffffffffffffffffffffff1614611324576040517f08c379a000000000000000000000000000000000000000000000000000000000815260040161131b9061405f565b60405180910390fd5b60004790506000811161136c576040517f08c379a000000000000000000000000000000000000000000000000000000000815260040161136390613fff565b60405180910390fd5b8173ffffffffffffffffffffffffffffffffffffffff166108fc829081150290604051600060405180830381858888f193505050501580156113b2573d6000803e3d6000fd5b505050565b6113bf61270a565b73ffffffffffffffffffffffffffffffffffffffff166113dd611763565b73ffffffffffffffffffffffffffffffffffffffff1614611433576040517f08c379a000000000000000000000000000000000000000000000000000000000815260040161142a9061405f565b60405180910390fd5b80601e90805190602001906114499291906136ec565b5050565b60145481565b600061145e82612c7f565b600001519050919050565b61147161270a565b73ffffffffffffffffffffffffffffffffffffffff1661148f611763565b73ffffffffffffffffffffffffffffffffffffffff16146114e5576040517f08c379a00000000000000000000000000000000000000000000000000000000081526004016114dc9061405f565b60405180910390fd5b8060128190555050565b601e80546114fc90614384565b80601f016020809104026020016040519081016040528092919081815260200182805461152890614384565b80156115755780601f1061154a57610100808354040283529160200191611575565b820191906000526020600020905b81548152906001019060200180831161155857829003601f168201915b505050505081565b60008073ffffffffffffffffffffffffffffffffffffffff168273ffffffffffffffffffffffffffffffffffffffff1614156115e5576040517f8f4eb60400000000000000000000000000000000000000000000000000000000815260040160405180910390fd5b600560008373ffffffffffffffffffffffffffffffffffffffff1673ffffffffffffffffffffffffffffffffffffffff16815260200190815260200160002060000160009054906101000a900467ffffffffffffffff1667ffffffffffffffff169050919050565b61165561270a565b73ffffffffffffffffffffffffffffffffffffffff16611673611763565b73ffffffffffffffffffffffffffffffffffffffff16146116c9576040517f08c379a00000000000000000000000000000000000000000000000000000000081526004016116c09061405f565b60405180910390fd5b6116d36000612f0a565b565b602080546116e290614384565b80601f016020809104026020016040519081016040528092919081815260200182805461170e90614384565b801561175b5780601f106117305761010080835404028352916020019161175b565b820191906000526020600020905b81548152906001019060200180831161173e57829003601f168201915b505050505081565b6000600860009054906101000a900473ffffffffffffffffffffffffffffffffffffffff16905090565b60155481565b600d5481565b60175481565b6060600380546117ae90614384565b80601f01602080910402602001604051908101604052809291908181526020018280546117da90614384565b80156118275780601f106117fc57610100808354040283529160200191611827565b820191906000526020600020905b81548152906001019060200180831161180a57829003601f168201915b5050505050905090565b600e5481565b60185481565b601960009054906101000a900460ff1661188c576040517f08c379a00000000000000000000000000000000000000000000000000000000081526004016118839061407f565b60405180910390fd5b601c548211156118d1576040517f08c379a00000000000000000000000000000000000000000000000000000000081526004016118c89061401f565b60405180910390fd5b601b546118dd8461157d565b1061191d576040517f08c379a00000000000000000000000000000000000000000000000000000000081526004016119149061409f565b60405180910390fd5b60018114156119f6576000600d549050601554838261193c91906141b9565b111561197d576040517f08c379a000000000000000000000000000000000000000000000000000000000815260040161197490613fdf565b60405180910390fd5b8260115461198b9190614240565b3410156119cd576040517f08c379a00000000000000000000000000000000000000000000000000000000081526004016119c490613f7f565b60405180910390fd5b6119d78484612fd0565b82600d60008282546119e991906141b9565b9250508190555050611cc6565b6002811415611acf576000600e5490506016548382611a1591906141b9565b1115611a56576040517f08c379a0000000000000000000000000000000000000000000000000000000008152600401611a4d90613fdf565b60405180910390fd5b82601254611a649190614240565b341015611aa6576040517f08c379a0000000000000000000000000000000000000000000000000000000008152600401611a9d9061403f565b60405180910390fd5b611ab08484612fd0565b82600e6000828254611ac291906141b9565b9250508190555050611cc5565b6003811415611ba8576000600f5490506017548382611aee91906141b9565b1115611b2f576040517f08c379a0000000000000000000000000000000000000000000000000000000008152600401611b2690613fdf565b60405180910390fd5b82601354611b3d9190614240565b341015611b7f576040517f08c379a0000000000000000000000000000000000000000000000000000000008152600401611b769061403f565b60405180910390fd5b611b898484612fd0565b82600f6000828254611b9b91906141b9565b9250508190555050611cc4565b6004811415611c8157600060105490506018548382611bc791906141b9565b1115611c08576040517f08c379a0000000000000000000000000000000000000000000000000000000008152600401611bff90613fdf565b60405180910390fd5b82601454611c169190614240565b341015611c58576040517f08c379a0000000000000000000000000000000000000000000000000000000008152600401611c4f9061403f565b60405180910390fd5b611c628484612fd0565b8260106000828254611c7491906141b9565b9250508190555050611cc3565b6000611cc2576040517f08c379a0000000000000000000000000000000000000000000000000000000008152600401611cb990613fbf565b60405180910390fd5b5b5b5b5b505050565b611cd361270a565b73ffffffffffffffffffffffffffffffffffffffff168273ffffffffffffffffffffffffffffffffffffffff161415611d38576040517fb06307db00000000000000000000000000000000000000000000000000000000815260040160405180910390fd5b8060076000611d4561270a565b73ffffffffffffffffffffffffffffffffffffffff1673ffffffffffffffffffffffffffffffffffffffff16815260200190815260200160002060008473ffffffffffffffffffffffffffffffffffffffff1673ffffffffffffffffffffffffffffffffffffffff16815260200190815260200160002060006101000a81548160ff0219169083151502179055508173ffffffffffffffffffffffffffffffffffffffff16611df261270a565b73ffffffffffffffffffffffffffffffffffffffff167f17307eab39ab6107e8899845ad3d59bd9653f200f220920489ca2b5937696c3183604051611e379190613f42565b60405180910390a35050565b611e4b61270a565b73ffffffffffffffffffffffffffffffffffffffff16611e69611763565b73ffffffffffffffffffffffffffffffffffffffff1614611ebf576040517f08c379a0000000000000000000000000000000000000000000000000000000008152600401611eb69061405f565b60405180910390fd5b80601b8190555050565b601b5481565b611eda8484846127c9565b611ef98373ffffffffffffffffffffffffffffffffffffffff16612fee565b15611f4157611f0a84848484613011565b611f40576040517fd1a57ed600000000000000000000000000000000000000000000000000000000815260040160405180910390fd5b5b50505050565b611f4f61270a565b73ffffffffffffffffffffffffffffffffffffffff16611f6d611763565b73ffffffffffffffffffffffffffffffffffffffff1614611fc3576040517f08c379a0000000000000000000000000000000000000000000000000000000008152600401611fba9061405f565b60405180910390fd5b8060209080519060200190611fd99291906136ec565b5050565b60135481565b611feb61270a565b73ffffffffffffffffffffffffffffffffffffffff16612009611763565b73ffffffffffffffffffffffffffffffffffffffff161461205f576040517f08c379a00000000000000000000000000000000000000000000000000000000081526004016120569061405f565b60405180910390fd5b80601d60006101000a81548160ff02191690831515021790555050565b601f805461208990614384565b80601f01602080910402602001604051908101604052809291908181526020018280546120b590614384565b80156121025780601f106120d757610100808354040283529160200191612102565b820191906000526020600020905b8154815290600101906020018083116120e557829003601f168201915b505050505081565b6060612115826126bc565b61214b576040517fa14c4b5000000000000000000000000000000000000000000000000000000000815260040160405180910390fd5b601d60009054906101000a900460ff161561219557601e61216b83613171565b601f60405160200161217f93929190613eaa565b60405160208183030381529060405290506121b9565b60206040516020016121a79190613e93565b60405160208183030381529060405290505b919050565b6121c661270a565b73ffffffffffffffffffffffffffffffffffffffff166121e4611763565b73ffffffffffffffffffffffffffffffffffffffff161461223a576040517f08c379a00000000000000000000000000000000000000000000000000000000081526004016122319061405f565b60405180910390fd5b60018114156122c3576000600d549050601554838261225991906141b9565b111561229a576040517f08c379a000000000000000000000000000000000000000000000000000000000815260040161229190613fdf565b60405180910390fd5b6122a48484612fd0565b82600d60008282546122b691906141b9565b92505081905550506124a3565b600281141561234c576000600e54905060165483826122e291906141b9565b1115612323576040517f08c379a000000000000000000000000000000000000000000000000000000000815260040161231a90613fdf565b60405180910390fd5b61232d8484612fd0565b82600e600082825461233f91906141b9565b92505081905550506124a2565b60038114156123d5576000600f549050601754838261236b91906141b9565b11156123ac576040517f08c379a00000000000000000000000000000000000000000000000000000000081526004016123a390613fdf565b60405180910390fd5b6123b68484612fd0565b82600f60008282546123c891906141b9565b92505081905550506124a1565b600481141561245e576000601054905060185483826123f491906141b9565b1115612435576040517f08c379a000000000000000000000000000000000000000000000000000000000815260040161242c90613fdf565b60405180910390fd5b61243f8484612fd0565b826010600082825461245191906141b9565b92505081905550506124a0565b600061249f576040517f08c379a000000000000000000000000000000000000000000000000000000000815260040161249690613fbf565b60405180910390fd5b5b5b5b5b505050565b60095481565b601a5481565b600c5481565b60165481565b6000600760008473ffffffffffffffffffffffffffffffffffffffff1673ffffffffffffffffffffffffffffffffffffffff16815260200190815260200160002060008373ffffffffffffffffffffffffffffffffffffffff1673ffffffffffffffffffffffffffffffffffffffff16815260200190815260200160002060009054906101000a900460ff16905092915050565b61255c61270a565b73ffffffffffffffffffffffffffffffffffffffff1661257a611763565b73ffffffffffffffffffffffffffffffffffffffff16146125d0576040517f08c379a00000000000000000000000000000000000000000000000000000000081526004016125c79061405f565b60405180910390fd5b600073ffffffffffffffffffffffffffffffffffffffff168173ffffffffffffffffffffffffffffffffffffffff161415612640576040517f08c379a000000000000000000000000000000000000000000000000000000000815260040161263790613f9f565b60405180910390fd5b61264981612f0a565b50565b600f5481565b60007f01ffc9a7000000000000000000000000000000000000000000000000000000007bffffffffffffffffffffffffffffffffffffffffffffffffffffffff1916827bffffffffffffffffffffffffffffffffffffffffffffffffffffffff1916149050919050565b6000816126c76127c4565b111580156126d6575060005482105b8015612703575060046000838152602001908152602001600020600001601c9054906101000a900460ff16155b9050919050565b600033905090565b826006600084815260200190815260200160002060006101000a81548173ffffffffffffffffffffffffffffffffffffffff021916908373ffffffffffffffffffffffffffffffffffffffff160217905550818373ffffffffffffffffffffffffffffffffffffffff168273ffffffffffffffffffffffffffffffffffffffff167f8c5be1e5ebec7d5bd14f71427d1e84f3dd0314c0f7b2291e5b200ac8c7c3b92560405160405180910390a4505050565b600090565b60006127d482612c7f565b90508373ffffffffffffffffffffffffffffffffffffffff16816000015173ffffffffffffffffffffffffffffffffffffffff161461283f576040517fa114810000000000000000000000000000000000000000000000000000000000815260040160405180910390fd5b60008473ffffffffffffffffffffffffffffffffffffffff1661286061270a565b73ffffffffffffffffffffffffffffffffffffffff16148061288f575061288e8561288961270a565b6124c0565b5b806128d4575061289d61270a565b73ffffffffffffffffffffffffffffffffffffffff166128bc84610dfe565b73ffffffffffffffffffffffffffffffffffffffff16145b90508061290d576040517f59c896be00000000000000000000000000000000000000000000000000000000815260040160405180910390fd5b600073ffffffffffffffffffffffffffffffffffffffff168473ffffffffffffffffffffffffffffffffffffffff161415612974576040517fea553b3400000000000000000000000000000000000000000000000000000000815260040160405180910390fd5b612981858585600161331e565b61298d60008487612712565b6001600560008773ffffffffffffffffffffffffffffffffffffffff1673ffffffffffffffffffffffffffffffffffffffff16815260200190815260200160002060000160008282829054906101000a900467ffffffffffffffff160392506101000a81548167ffffffffffffffff021916908367ffffffffffffffff1602179055506001600560008673ffffffffffffffffffffffffffffffffffffffff1673ffffffffffffffffffffffffffffffffffffffff16815260200190815260200160002060000160008282829054906101000a900467ffffffffffffffff160192506101000a81548167ffffffffffffffff021916908367ffffffffffffffff1602179055506000600460008581526020019081526020016000209050848160000160006101000a81548173ffffffffffffffffffffffffffffffffffffffff021916908373ffffffffffffffffffffffffffffffffffffffff160217905550428160000160146101000a81548167ffffffffffffffff021916908367ffffffffffffffff16021790555060006001850190506000600460008381526020019081526020016000209050600073ffffffffffffffffffffffffffffffffffffffff168160000160009054906101000a900473ffffffffffffffffffffffffffffffffffffffff1673ffffffffffffffffffffffffffffffffffffffff161415612c0d576000548214612c0c57878160000160006101000a81548173ffffffffffffffffffffffffffffffffffffffff021916908373ffffffffffffffffffffffffffffffffffffffff16021790555084602001518160000160146101000a81548167ffffffffffffffff021916908367ffffffffffffffff1602179055505b5b505050828473ffffffffffffffffffffffffffffffffffffffff168673ffffffffffffffffffffffffffffffffffffffff167fddf252ad1be2c89b69c2b068fc378daa952ba7f163c4a11628f55a4df523b3ef60405160405180910390a4612c788585856001613324565b5050505050565b612c87613772565b600082905080612c956127c4565b11612ed357600054811015612ed2576000600460008381526020019081526020016000206040518060600160405290816000820160009054906101000a900473ffffffffffffffffffffffffffffffffffffffff1673ffffffffffffffffffffffffffffffffffffffff1673ffffffffffffffffffffffffffffffffffffffff1681526020016000820160149054906101000a900467ffffffffffffffff1667ffffffffffffffff1667ffffffffffffffff16815260200160008201601c9054906101000a900460ff16151515158152505090508060400151612ed057600073ffffffffffffffffffffffffffffffffffffffff16816000015173ffffffffffffffffffffffffffffffffffffffff1614612db4578092505050612f05565b5b600115612ecf57818060019003925050600460008381526020019081526020016000206040518060600160405290816000820160009054906101000a900473ffffffffffffffffffffffffffffffffffffffff1673ffffffffffffffffffffffffffffffffffffffff1673ffffffffffffffffffffffffffffffffffffffff1681526020016000820160149054906101000a900467ffffffffffffffff1667ffffffffffffffff1667ffffffffffffffff16815260200160008201601c9054906101000a900460ff1615151515815250509050600073ffffffffffffffffffffffffffffffffffffffff16816000015173ffffffffffffffffffffffffffffffffffffffff1614612eca578092505050612f05565b612db5565b5b505b5b6040517fdf2d9b4200000000000000000000000000000000000000000000000000000000815260040160405180910390fd5b919050565b6000600860009054906101000a900473ffffffffffffffffffffffffffffffffffffffff16905081600860006101000a81548173ffffffffffffffffffffffffffffffffffffffff021916908373ffffffffffffffffffffffffffffffffffffffff1602179055508173ffffffffffffffffffffffffffffffffffffffff168173ffffffffffffffffffffffffffffffffffffffff167f8be0079c531659141344cd1fd0a4f28419497f9722a3daafe3b4186f6b6457e060405160405180910390a35050565b612fea82826040518060200160405280600081525061332a565b5050565b6000808273ffffffffffffffffffffffffffffffffffffffff163b119050919050565b60008373ffffffffffffffffffffffffffffffffffffffff1663150b7a0261303761270a565b8786866040518563ffffffff1660e01b81526004016130599493929190613ef6565b602060405180830381600087803b15801561307357600080fd5b505af19250505080156130a457506040513d601f19601f820116820180604052508101906130a19190613b53565b60015b61311e573d80600081146130d4576040519150601f19603f3d011682016040523d82523d6000602084013e6130d9565b606091505b50600081511415613116576040517fd1a57ed600000000000000000000000000000000000000000000000000000000815260040160405180910390fd5b805181602001fd5b63150b7a0260e01b7bffffffffffffffffffffffffffffffffffffffffffffffffffffffff1916817bffffffffffffffffffffffffffffffffffffffffffffffffffffffff191614915050949350505050565b606060008214156131b9576040518060400160405280600181526020017f30000000000000000000000000000000000000000000000000000000000000008152509050613319565b600082905060005b600082146131eb5780806131d4906143e7565b915050600a826131e4919061420f565b91506131c1565b60008167ffffffffffffffff81111561322d577f4e487b7100000000000000000000000000000000000000000000000000000000600052604160045260246000fd5b6040519080825280601f01601f19166020018201604052801561325f5781602001600182028036833780820191505090505b5090505b6000851461331257600182613278919061429a565b9150600a856132879190614430565b603061329391906141b9565b60f81b8183815181106132cf577f4e487b7100000000000000000000000000000000000000000000000000000000600052603260045260246000fd5b60200101907effffffffffffffffffffffffffffffffffffffffffffffffffffffffffffff1916908160001a905350600a8561330b919061420f565b9450613263565b8093505050505b919050565b50505050565b50505050565b600080549050600073ffffffffffffffffffffffffffffffffffffffff168473ffffffffffffffffffffffffffffffffffffffff161415613397576040517f2e07630000000000000000000000000000000000000000000000000000000000815260040160405180910390fd5b60008314156133d2576040517fb562e8dd00000000000000000000000000000000000000000000000000000000815260040160405180910390fd5b6133df600085838661331e565b82600560008673ffffffffffffffffffffffffffffffffffffffff1673ffffffffffffffffffffffffffffffffffffffff16815260200190815260200160002060000160008282829054906101000a900467ffffffffffffffff160192506101000a81548167ffffffffffffffff021916908367ffffffffffffffff16021790555082600560008673ffffffffffffffffffffffffffffffffffffffff1673ffffffffffffffffffffffffffffffffffffffff16815260200190815260200160002060000160088282829054906101000a900467ffffffffffffffff160192506101000a81548167ffffffffffffffff021916908367ffffffffffffffff160217905550836004600083815260200190815260200160002060000160006101000a81548173ffffffffffffffffffffffffffffffffffffffff021916908373ffffffffffffffffffffffffffffffffffffffff160217905550426004600083815260200190815260200160002060000160146101000a81548167ffffffffffffffff021916908367ffffffffffffffff1602179055506000819050600084820190506135a08673ffffffffffffffffffffffffffffffffffffffff16612fee565b15613665575b818673ffffffffffffffffffffffffffffffffffffffff16600073ffffffffffffffffffffffffffffffffffffffff167fddf252ad1be2c89b69c2b068fc378daa952ba7f163c4a11628f55a4df523b3ef60405160405180910390a46136156000878480600101955087613011565b61364b576040517fd1a57ed600000000000000000000000000000000000000000000000000000000815260040160405180910390fd5b8082106135a657826000541461366057600080fd5b6136d0565b5b818060010192508673ffffffffffffffffffffffffffffffffffffffff16600073ffffffffffffffffffffffffffffffffffffffff167fddf252ad1be2c89b69c2b068fc378daa952ba7f163c4a11628f55a4df523b3ef60405160405180910390a4808210613666575b8160008190555050506136e66000858386613324565b50505050565b8280546136f890614384565b90600052602060002090601f01602090048101928261371a5760008555613761565b82601f1061373357805160ff1916838001178555613761565b82800160010185558215613761579182015b82811115613760578251825591602001919060010190613745565b5b50905061376e91906137b5565b5090565b6040518060600160405280600073ffffffffffffffffffffffffffffffffffffffff168152602001600067ffffffffffffffff1681526020016000151581525090565b5b808211156137ce5760008160009055506001016137b6565b5090565b60006137e56137e0846140ff565b6140da565b9050828152602081018484840111156137fd57600080fd5b613808848285614342565b509392505050565b600061382361381e84614130565b6140da565b90508281526020810184848401111561383b57600080fd5b613846848285614342565b509392505050565b60008135905061385d81614786565b92915050565b6000813590506138728161479d565b92915050565b600081359050613887816147b4565b92915050565b60008151905061389c816147b4565b92915050565b600082601f8301126138b357600080fd5b81356138c38482602086016137d2565b91505092915050565b600082601f8301126138dd57600080fd5b81356138ed848260208601613810565b91505092915050565b600081359050613905816147cb565b92915050565b60006020828403121561391d57600080fd5b600061392b8482850161384e565b91505092915050565b6000806040838503121561394757600080fd5b60006139558582860161384e565b92505060206139668582860161384e565b9150509250929050565b60008060006060848603121561398557600080fd5b60006139938682870161384e565b93505060206139a48682870161384e565b92505060406139b5868287016138f6565b9150509250925092565b600080600080608085870312156139d557600080fd5b60006139e38782880161384e565b94505060206139f48782880161384e565b9350506040613a05878288016138f6565b925050606085013567ffffffffffffffff811115613a2257600080fd5b613a2e878288016138a2565b91505092959194509250565b60008060408385031215613a4d57600080fd5b6000613a5b8582860161384e565b9250506020613a6c85828601613863565b9150509250929050565b60008060408385031215613a8957600080fd5b6000613a978582860161384e565b9250506020613aa8858286016138f6565b9150509250929050565b600080600060608486031215613ac757600080fd5b6000613ad58682870161384e565b9350506020613ae6868287016138f6565b9250506040613af7868287016138f6565b9150509250925092565b600060208284031215613b1357600080fd5b6000613b2184828501613863565b91505092915050565b600060208284031215613b3c57600080fd5b6000613b4a84828501613878565b91505092915050565b600060208284031215613b6557600080fd5b6000613b738482850161388d565b91505092915050565b600060208284031215613b8e57600080fd5b600082013567ffffffffffffffff811115613ba857600080fd5b613bb4848285016138cc565b91505092915050565b600060208284031215613bcf57600080fd5b6000613bdd848285016138f6565b91505092915050565b613bef816142ce565b82525050565b613bfe816142e0565b82525050565b6000613c0f82614176565b613c19818561418c565b9350613c29818560208601614351565b613c328161451d565b840191505092915050565b6000613c4882614181565b613c52818561419d565b9350613c62818560208601614351565b613c6b8161451d565b840191505092915050565b6000613c8182614181565b613c8b81856141ae565b9350613c9b818560208601614351565b80840191505092915050565b60008154613cb481614384565b613cbe81866141ae565b94506001821660008114613cd95760018114613cea57613d1d565b60ff19831686528186019350613d1d565b613cf385614161565b60005b83811015613d1557815481890152600182019150602081019050613cf6565b838801955050505b50505092915050565b6000613d3360228361419d565b9150613d3e8261452e565b604082019050919050565b6000613d5660268361419d565b9150613d618261457d565b604082019050919050565b6000613d79601d8361419d565b9150613d84826145cc565b602082019050919050565b6000613d9c60158361419d565b9150613da7826145f5565b602082019050919050565b6000613dbf60208361419d565b9150613dca8261461e565b602082019050919050565b6000613de260218361419d565b9150613ded82614647565b604082019050919050565b6000613e0560228361419d565b9150613e1082614696565b604082019050919050565b6000613e2860208361419d565b9150613e33826146e5565b602082019050919050565b6000613e4b60128361419d565b9150613e568261470e565b602082019050919050565b6000613e6e60318361419d565b9150613e7982614737565b604082019050919050565b613e8d81614338565b82525050565b6000613e9f8284613ca7565b915081905092915050565b6000613eb68286613ca7565b9150613ec28285613c76565b9150613ece8284613ca7565b9150819050949350505050565b6000602082019050613ef06000830184613be6565b92915050565b6000608082019050613f0b6000830187613be6565b613f186020830186613be6565b613f256040830185613e84565b8181036060830152613f378184613c04565b905095945050505050565b6000602082019050613f576000830184613bf5565b92915050565b60006020820190508181036000830152613f778184613c3d565b905092915050565b60006020820190508181036000830152613f9881613d26565b9050919050565b60006020820190508181036000830152613fb881613d49565b9050919050565b60006020820190508181036000830152613fd881613d6c565b9050919050565b60006020820190508181036000830152613ff881613d8f565b9050919050565b6000602082019050818103600083015261401881613db2565b9050919050565b6000602082019050818103600083015261403881613dd5565b9050919050565b6000602082019050818103600083015261405881613df8565b9050919050565b6000602082019050818103600083015261407881613e1b565b9050919050565b6000602082019050818103600083015261409881613e3e565b9050919050565b600060208201905081810360008301526140b881613e61565b9050919050565b60006020820190506140d46000830184613e84565b92915050565b60006140e46140f5565b90506140f082826143b6565b919050565b6000604051905090565b600067ffffffffffffffff82111561411a576141196144ee565b5b6141238261451d565b9050602081019050919050565b600067ffffffffffffffff82111561414b5761414a6144ee565b5b6141548261451d565b9050602081019050919050565b60008190508160005260206000209050919050565b600081519050919050565b600081519050919050565b600082825260208201905092915050565b600082825260208201905092915050565b600081905092915050565b60006141c482614338565b91506141cf83614338565b9250827fffffffffffffffffffffffffffffffffffffffffffffffffffffffffffffffff0382111561420457614203614461565b5b828201905092915050565b600061421a82614338565b915061422583614338565b92508261423557614234614490565b5b828204905092915050565b600061424b82614338565b915061425683614338565b9250817fffffffffffffffffffffffffffffffffffffffffffffffffffffffffffffffff048311821515161561428f5761428e614461565b5b828202905092915050565b60006142a582614338565b91506142b083614338565b9250828210156142c3576142c2614461565b5b828203905092915050565b60006142d982614318565b9050919050565b60008115159050919050565b60007fffffffff0000000000000000000000000000000000000000000000000000000082169050919050565b600073ffffffffffffffffffffffffffffffffffffffff82169050919050565b6000819050919050565b82818337600083830152505050565b60005b8381101561436f578082015181840152602081019050614354565b8381111561437e576000848401525b50505050565b6000600282049050600182168061439c57607f821691505b602082108114156143b0576143af6144bf565b5b50919050565b6143bf8261451d565b810181811067ffffffffffffffff821117156143de576143dd6144ee565b5b80604052505050565b60006143f282614338565b91507fffffffffffffffffffffffffffffffffffffffffffffffffffffffffffffffff82141561442557614424614461565b5b600182019050919050565b600061443b82614338565b915061444683614338565b92508261445657614455614490565b5b828206905092915050565b7f4e487b7100000000000000000000000000000000000000000000000000000000600052601160045260246000fd5b7f4e487b7100000000000000000000000000000000000000000000000000000000600052601260045260246000fd5b7f4e487b7100000000000000000000000000000000000000000000000000000000600052602260045260246000fd5b7f4e487b7100000000000000000000000000000000000000000000000000000000600052604160045260246000fd5b6000601f19601f8301169050919050565b7f45746865722056616c75652073656e74206973206e6f7420737566666963696560008201527f6e74000000000000000000000000000000000000000000000000000000000000602082015250565b7f4f776e61626c653a206e6577206f776e657220697320746865207a65726f206160008201527f6464726573730000000000000000000000000000000000000000000000000000602082015250565b7f54686973206d696e74207479706520646f6573206e6f74206578697374000000600082015250565b7f457863656564656420746f74616c20737570706c790000000000000000000000600082015250565b7f42616c616e63652073686f756c64206265206d6f7265207468656e207a65726f600082015250565b7f5f6e756d2073686f756c64206265203c206d61784d696e7450657257616c6c6560008201527f7400000000000000000000000000000000000000000000000000000000000000602082015250565b7f45746865722076616c75652073656e74206973206e6f7420737566666963696560008201527f6e74000000000000000000000000000000000000000000000000000000000000602082015250565b7f4f776e61626c653a2063616c6c6572206973206e6f7420746865206f776e6572600082015250565b7f4d696e74206973206e6f74206163746976650000000000000000000000000000600082015250565b7f6d61784d696e7450657257616c6c657420686173206265656e2072656163686560008201527f6420666f7220746869732077616c6c6574000000000000000000000000000000602082015250565b61478f816142ce565b811461479a57600080fd5b50565b6147a6816142e0565b81146147b157600080fd5b50565b6147bd816142ec565b81146147c857600080fd5b50565b6147d481614338565b81146147df57600080fd5b5056fea2646970667358221220eeb1f14a3ec90fd4b969ca2a4bf75d7ded0875bd0972becf5124bae4b7c817fa64736f6c63430008040033",
  "linkReferences": {},
  "deployedLinkReferences": {}
}